:020000040000FA
:06000000E5EF24F0120000
:020006001200E6
:0600080006EF22F01200D9
:01000E0000F1
:01000F0000F0
:03001000000000ED
:0600180088EF21F0120048
:02001E000800D8
:10002000284B000061010000280000000D4B00007B
:10003000650F00001B0000000F000000E001000041
:1000400004000000AC4A0000000100006100000054
:10005000354A000080000000770000000E0000001C
:10006000E601000001000000224A0000C301000078
:1000700013000000024A0000890100002000000077
:10008000D9CFE6FFE1CFD9FF040EE126DE6ADD6AB3
:10009000020EDB6A030EDB6A69D8956A7AEC22F0FD
:1000A0000101945106E0946BE6EC15F0E7DB5AECA5
:1000B00013F001019151F4E0D9CFE9FFDACFEAFF63
:1000C000F40EEE1807E1010EED1804E187D8DE6AA0
:1000D000DD6AE6D7DF2A010EE3E3DB2AE1D7D9CFD9
:1000E000E6FFE1CFD9FF040EE126DE6ADD6ADECF4E
:1000F00014F0DDCF15F0FD0EDBCF16F0FE0EDBCFDA
:1001000017F015501718E8AE02D0173404D0165067
:10011000145C175015581DE2020EDB6A030EDB6AF1
:10012000020EDBCF14F0030EDBCF15F0D890155084
:1001300004E6EE0E145C000E155806E2020EDB2AF1
:10014000030EEEE3DB2AECD7DF2A010ED0E3DB2A35
:10015000CED7040EE15C02E2E16AE552E16EE552BF
:10016000E7CFD9FF1200956A836A120033D842ECB8
:100170001CF0F9DF8AEC0FF0DAEC15F080EC21F0DE
:1001800034EC11F02BEC13F0F40EE66E010EE66E7B
:10019000A6DFE552E552570EE66E120EE66EB4EC9F
:1001A00019F0E552E552660EE66EB70EE66E17ECF4
:1001B0001BF0E552E552020EE66EE66AF2EC1BF029
:1001C000E552E552320EE66EE66A23EC1CF0E5528B
:1001D000E5521200926A806A966A1200030E0001CC
:1001E000D61901E1D75101E1E2D0020ED61901E1A1
:1001F000D75101E196D0010ED61901E1D75145E062
:10020000D65101E00ED1D75101E00BD1060EE66EBA
:10021000E66A1BD9E552E552070EE66EE66A3DD95D
:10022000E552E552846ABCC0E9FFBDC0EAFFE80EB2
:100230000D6E030E0E6EBCC008F0BDC009F013ECCD
:1002400023F008C0E9FF09C0EAFFCC0EE926000E42
:10025000EA22EF50806E0B0E0001B75D01E1E1D0A4
:100260000C0EB75D01E1DDD00E0EB75D01E1D9D016
:100270000D0EB75D01E1D5D0200EB75D01E1D1D003
:10028000210EB75D01E1CDD0CAD0060EE66EE66A5A
:1002900004D9E552E552070EE66EE66AD6D8E55275
:1002A000E552846ABCC0E9FFBDC0EAFFE80E0D6EEE
:1002B000030E0E6EBCC008F0BDC009F013EC23F0B5
:1002C00004C0E9FF05C0EAFF640E0D6E0E6A04C0AB
:1002D00008F005C009F013EC23F008C0E9FF09C0DD
:1002E000EAFFCC0EE926000EEA22EF50806E0B0EDC
:1002F0000001B75D01E195D00C0EB75D01E191D031
:100300000E0EB75D01E18DD00D0EB75D01E189D014
:10031000200EB75D01E185D0210EB75D01E181D0EE
:100320007ED0060EE66EE66AB8D8E552E552070EB4
:10033000E66EE66AB2D8E552E552010E846EBCC0A4
:10034000E9FFBDC0EAFF640E0D6E0E6ABCC008F086
:10035000BDC009F013EC23F004C0E9FF05C0EAFFBB
:100360000A0E0D6E0E6A04C008F005C009F013EC09
:1003700023F008C0E9FF09C0EAFFCC0EE926000E11
:10038000EA22EF50806E0B0E0001B75D4AE00C0EC2
:10039000B75D47E00E0EB75D44E00D0EB75D41E07E
:1003A000200EB75D3EE0210EB75D3BE038D0060E73
:1003B000E66EE66A72D8E552E552070EE66EE66A28
:1003C0006CD8E552E552020E846EBCC0E9FFBDC098
:1003D000EAFF0A0E0D6E0E6ABCC008F0BDC009F03F
:1003E00013EC23F004C0E9FF05C0EAFFCC0EE926B8
:1003F000000EEA22EF50806E0B0E0001B75D11E097
:100400000C0EB75D0EE00E0EB75D0BE00D0EB75D86
:1004100008E0200EB75D05E0210EB75D02E0CCC01C
:1004200080FF010ED625D66F000ED721D76F040EA0
:100430000D6E0E6AD6C008F0D7C009F013EC23F099
:1004400004C0D6F005C0D7F01200D9CFE6FFE1CF47
:10045000D9FFFE0EDBCF15F0800E15141AE1FD0E4C
:10046000DBCF16F0FE0EDBCF17F0173404E2165088
:100470000708000E17540DE3FD0EDBCFE9FFFE0E5B
:10048000DBCFEAFF800EE926000EEA22EF50831050
:10049000836EE552E7CFD9FF1200D9CFE6FFE1CF57
:1004A000D9FFFE0EDBCF15F0800E15141AE1FD0EFC
:1004B000DBCF16F0FE0EDBCF17F0173404E2165038
:1004C0000708000E17540DE3FD0EDBCFE9FFFE0E0B
:1004D000DBCFEAFF800EE926000EEA22EF1C831430
:1004E000836EE552E7CFD9FF1200D9CFE6FFE1CF07
:1004F000D9FFFD0EDBCFE9FFFE0EDBCFEAFF880E52
:10050000E926000EEA22EF0415E1FD0EDBCFE6FF3F
:10051000FE0EDBCFE6FFC1DFE552E552FD0EDBCF7D
:10052000E9FFFE0EDBCFEAFF880EE926000EEA2285
:10053000EF6A15D0FD0EDBCFE6FFFE0EDBCFE6FF48
:1005400084DFE552E552FD0EDBCFE9FFFE0EDBCF87
:10055000EAFF880EE926000EEA22010EEF6EE55250
:10056000E7CFD9FF1200D9CFE6FFE1CFD9FF020EC6
:10057000E126DE6ADD6ADECF14F0DDCF15F0D8901B
:10058000155004E60E0E145C000E155821E2DECF65
:10059000E6FFDDCFE6FF59DFE552E552F40EE66EE9
:1005A000010EE66E9CDDE552E552DECFE6FFDDCFC3
:1005B000E6FF73DFE552E552F40EE66E010EE66EDD
:1005C0008EDDE552E552DF2A010ED5E3DB2AD3D7D3
:1005D000020EE15C02E2E16AE552E16EE552E7CF2C
:1005E000D9FF1200000EE66EE66A2FDFE552E552F3
:1005F0001200000EE66EE66A50DFE552E552120088
:10060000040EE66EE66A21DFE552E5521200040EA2
:10061000E66EE66A42DFE552E5521200060EE66E2D
:10062000E66A13DFE552E5521200060EE66EE66A50
:1006300034DFE552E5521200010EE66EE66A05DF90
:10064000E552E5521200010EE66EE66A26DFE5523B
:10065000E5521200050EE66EE66AF7DEE552E55257
:100660001200050EE66EE66A18DFE552E55212004A
:10067000070EE66EE66AE9DEE552E5521200070E65
:10068000E66EE66A0ADFE552E55212000101010E4C
:10069000611903E1625101E1010C000C0101010E3D
:1006A000631903E1645101E1010C000C0101010E29
:1006B000651903E1665101E1010C000C0101010E15
:1006C000691903E16A5101E1010C000C0101010EFD
:1006D0006B1903E16C5101E1010C000C0101010EE9
:1006E0006D1903E16E5101E1010C000CD9CFE6FF59
:1006F000E1CFD9FFFD0EDBCF08F0FE0EDBCF09F016
:10070000030E081801E1095011E0020E081801E17A
:10071000095018E0010E081822E1095020E1DE0E10
:10072000E66E420EE66EE66AE66A13D0DE0EE66E0E
:10073000420EE66EE66AE66AAFEC15F0E552E55267
:10074000E552E552DE0EE66E420EE66EE66A010EF8
:10075000E66EAFEC15F0E552E552E552E552E55292
:10076000E7CFD9FF1200D9CFE6FFE1CFD9FF020EC4
:10077000E126DE6ADD6ADECF14F0DDCF15F0D89019
:10078000155004E60A0E145C000E15581DE2DECF6B
:10079000E9FFDDCFEAFFD80EE926000EEA22EF34AA
:1007A000EA6AFE0BEA36E96E610EE926010EEA22DC
:1007B000010EEE1804E1ED5002E1010E06D0DF2A31
:1007C000010ED9E3DB2AD7D7000E146E020EE15CCE
:1007D00002E2E16AE552E16E1450E552E7CFD9FF3B
:1007E0001200D9CFE6FFE1CFD9FF020EE126DE6A83
:1007F000DD6ADECF14F0DDCF15F0D890155004E699
:100800000A0E145C000E155829E2DECFE9FFDDCF99
:10081000EAFFD80EE926000EEA22EF34EA6AFE0B60
:10082000EA36E96E610EE926010EEA22010EEE18A3
:1008300010E1ED500EE1FE0EEA6ADB34FE0BEA3603
:10084000E96EB80EE926000EEA22DECFEEFFDDCF1C
:10085000EDFFDF2A010ECDE3DB2ACBD7020EE15CF0
:1008600002E2E16AE552E16EE552E7CFD9FF1200FC
:100870000001B86BB96BBA6BBB6B12000001EB2BBC
:10088000000EEC23E66BE72BE823E46BF32BF42359
:10089000110EE71906E1E85104E1E76BE86B010E80
:1008A000E46FAA0EEB1906E1EC5104E1EB6BEC6B83
:1008B000010EE66FB751280A02E120EF0EF0090A97
:1008C00002E148EF0DF0010A02E180EF0CF03F0A6F
:1008D00002E1FCEF0BF0010A02E178EF0BF00B0AEA
:1008E00002E1CEEF09F0010A02E1F1EF08F0190A86
:1008F00001E158D3030A01E13ED2020A01E129D104
:10090000070A19E0F40A01E012002BEC13F00001D1
:100910000B0EB76F010EC025BE6F000EC121BF6F59
:10092000010EC425C26F000EC521C36FC30EE66E53
:10093000420EE3EF0AF0000EE66EE66A86DDE5524F
:10094000E552010EE66EE66AA8DDE552E552020EBA
:10095000E66EE66AA2DDE552E552030EE66EE66A51
:100960009CDDE552E552040EE66EE66A96DDE55240
:10097000E552050EE66EE66A68DDE552E5522BECBF
:1009800013F0BC0EE66E420EE66EE66AE66AAFEC67
:1009900015F0E552E552E552E552B50EE66E420E0F
:1009A000E66EE66A010EE66EAFEC15F0E552E55232
:1009B000E552E5520001C33501E3A6D0C25100085B
:1009C000000EC35501E3A0D0BEC014F0BFC015F0A7
:1009D000166A176A15AE02D01668176814C0E6FFCB
:1009E00015C0E6FF16C0E6FF17C0E6FF0E0EE66E66
:1009F000E66A88EC14F0186E060EE15E1850C2C06C
:100A000014F0C3C015F0166A176A15AE02D0166846
:100A1000176814C0E6FF15C0E6FF16C0E6FF17C052
:100A2000E6FF0E0EE66E010EE66E88EC14F0186E10
:100A3000060EE15E1850640E086E096ABEC00DF025
:100A4000BFC00EF066EC23F006500001C225BC6F5B
:100A50000750C321BD6FE45161E0A70EE66E420E60
:100A6000E66EC3EC1CF0E552E552BEC014F0BFC008
:100A700015F0166A176A15AE02D01668176814C00A
:100A8000E6FF15C0E6FF16C0E6FF17C0E6FFE9EC7B
:100A90001CF0E552E552E552E552A40EE66E420E18
:100AA000E66EC3EC1CF0E552E552940EE66E420E83
:100AB000E66EC3EC1CF0E552E552C2C014F0C3C0B0
:100AC00015F0166A176A15AE02D01668176814C0BA
:100AD000E6FF15C0E6FF16C0E6FF17C0E6FFE9EC2B
:100AE0001CF0E552E552E552E552A40EE66E420EC8
:100AF000E66EC3EC1CF0E552E5520001BE07000EA5
:100B0000BF5BC207C35B0AD0ED6BEE6B0C0EB76F19
:100B1000010EC425C26F000EC521C36FB7DD0108E9
:100B20000CE1A6DE0001140EB76F7A0EE66E420EDF
:100B3000E66EC3EC1CF0E552E552C8DD010803E1A6
:100B400000011E0EB76FB2DD010802E0B9EF0EF032
:100B500044D3000EE66EE66A78DCE552E552010EFB
:100B6000E66EE66A9ADCE552E552020EE66EE66A49
:100B700094DCE552E552030EE66EE66A8EDCE55241
:100B8000E552040EE66EE66A60DCE552E552050EBB
:100B9000E66EE66A82DCE552E5522BEC13F0BC0E01
:100BA000E66E420EE66EE66AE66AAFEC15F0E552D6
:100BB000E552E552E552730EE66E420EE66EE66AC7
:100BC000010EE66EAFEC15F0E552E552E552E55246
:100BD0000001BF3501E3A6D0BE510008000EBF558D
:100BE00001E3A0D0BEC014F0BFC015F0166A176AAA
:100BF00015AE02D01668176814C0E6FF15C0E6FFF0
:100C000016C0E6FF17C0E6FF0E0EE66EE66A88EC39
:100C100014F0186E060EE15E1850C6C014F0C7C07E
:100C200015F0166A176A15AE02D01668176814C058
:100C3000E6FF15C0E6FF16C0E6FF17C0E6FF0E0E82
:100C4000E66E010EE66E88EC14F0186E060EE15E9C
:100C50001850640E086E096ABEC00DF0BFC00EF0D9
:100C600066EC23F006500001C625BC6F0750C72173
:100C7000BD6FE45165E0A70EE66E420EE66EC3EC72
:100C80001CF0E552E552BEC014F0BFC015F0166A64
:100C9000176A15AE02D01668176814C0E6FF15C0B3
:100CA000E6FF16C0E6FF17C0E6FFE9EC1CF0E552D0
:100CB000E552E552E552A40EE66E420EE66EC3EC36
:100CC0001CF0E552E552620EE66E420EE66EC3EC93
:100CD0001CF0E552E552C6C014F0C7C015F0166A04
:100CE000176A15AE02D01668176814C0E6FF15C063
:100CF000E6FF16C0E6FF17C0E6FFE9EC1CF0E55280
:100D0000E552E552E552A40EE66E420EE66EC3ECE5
:100D10001CF0E552E5520001BE07000EBF5BC6079E
:100D2000C75B0ED0ED6BEE6B0E0EB76F010EC025DC
:100D3000BE6F000EC121BF6FC8C0C6F0C9C0C7F0EA
:100D4000A5DC01080CE194DD0001140EB76F7A0EEA
:100D5000E66E420EE66EC3EC1CF0E552E552B6DCE0
:100D6000010803E100011E0EB76FA0DC010802E0DC
:100D7000B9EF0EF032D2000EE66EE66A4DEC02F0EC
:100D8000E552E552010EE66EE66A4DEC02F0E552E0
:100D9000E552020EE66EE66A25EC02F0E552E552F7
:100DA000030EE66EE66A25EC02F0E552E552040E0B
:100DB000E66EE66A4DEC02F0E552E552050EE66E8F
:100DC000E66A4DEC02F0E552E5522BEC13F05C0EB6
:100DD000E66E420EE66EE66AE66AAFEC15F0E552A4
:100DE000E552E552E552580EE66E420EE66EE66AB0
:100DF000010EE66EAFEC15F0E552E552E552E55214
:100E00000001C33501E3A6D0C2510008000EC3554E
:100E100001E3A0D0C2C014F0C3C015F0166A176A6F
:100E200015AE02D01668176814C0E6FF15C0E6FFBD
:100E300016C0E6FF17C0E6FF0E0EE66EE66A88EC07
:100E400014F0186E060EE15E1850BEC014F0BFC05C
:100E500015F0166A176A15AE02D01668176814C026
:100E6000E6FF15C0E6FF16C0E6FF17C0E6FF0E0E50
:100E7000E66E010EE66E88EC14F0186E060EE15E6A
:100E80001850640E086E096AC2C00DF0C3C00EF09F
:100E900066EC23F006500001BE25BC6F0750BF2151
:100EA000BD6FE45161E0480EE66E420EE66EC3ECA3
:100EB0001CF0E552E552C2C014F0C3C015F0166A2A
:100EC000176A15AE02D01668176814C0E6FF15C081
:100ED000E6FF16C0E6FF17C0E6FFE9EC1CF0E5529E
:100EE000E552E552E552A40EE66E420EE66EC3EC04
:100EF0001CF0E552E5523A0EE66E420EE66EC3EC89
:100F00001CF0E552E552BEC014F0BFC015F0166AE1
:100F1000176A15AE02D01668176814C0E6FF15C030
:100F2000E6FF16C0E6FF17C0E6FFE9EC1CF0E5524D
:100F3000E552E552E552A40EE66E420EE66EC3ECB3
:100F40001CF0E552E5520001C207000EC35BBE076C
:100F5000BF5B0AD0ED6BEE6B0D0EB76F010EC425B3
:100F6000C26F000EC521C36F46EC03F001080CE10F
:100F70007FDC0001140EB76F7A0EE66E420EE66E4D
:100F8000C3EC1CF0E552E55266EC03F0010803E106
:100F900000011E0EB76F56EC03F0010802E0B9EF36
:100FA0000EF01BD1000EE66EE66A4DEC02F0E55243
:100FB000E552010EE66EE66A25EC02F0E552E552D6
:100FC000020EE66EE66A4DEC02F0E552E552030EC3
:100FD000E66EE66A25EC02F0E552E552040EE66E96
:100FE000E66A4DEC02F0E552E552050EE66EE66A61
:100FF0004DEC02F0E552E5522BEC13F0730EE66E69
:10100000420EE66EE66AE66AAFEC15F0E552E5528E
:10101000E552E552580EE66E420EE66EE66A010EA5
:10102000E66EAFEC15F0E552E552E552E5520001EF
:10103000BF3501E3A6D0BE510008000EBF5501E345
:10104000A0D0C6C014F0C7C015F0166A176A15AE56
:1010500002D01668176814C0E6FF15C0E6FF16C078
:10106000E6FF17C0E6FF0E0EE66EE66A88EC14F0A7
:10107000186E060EE15E1850BEC014F0BFC015F029
:10108000166A176A15AE02D01668176814C0E6FF14
:1010900015C0E6FF16C0E6FF17C0E6FF0E0EE66EAF
:1010A000010EE66E88EC14F0186E060EE15E185024
:1010B000640E086E096AC6C00DF0C7C00EF066EC7B
:1010C00023F006500001BE25BC6F0750BF21BD6F45
:1010D000E45165E0290EE66E420EE66EC3EC1CF0AC
:1010E000E552E552C6C014F0C7C015F0166A176A7B
:1010F00015AE02D01668176814C0E6FF15C0E6FFEB
:1011000016C0E6FF17C0E6FFE9EC1CF0E552E55219
:10111000E552E552A40EE66E420EE66EC3EC1CF0FC
:10112000E552E5523A0EE66E420EE66EC3EC1CF056
:10113000E552E552BEC014F0BFC015F0166A176A3A
:1011400015AE02D01668176814C0E6FF15C0E6FF9A
:1011500016C0E6FF17C0E6FFE9EC1CF0E552E552C9
:10116000E552E552A40EE66E420EE66EC3EC1CF0AC
:10117000E552E5520001C607000EC75BBE07BF5B24
:101180000ED0ED6BEE6B0B0EB76F010EC025BE6F70
:10119000000EC121BF6FC8C0C6F0C9C0C7F046EC81
:1011A00003F001080DE138EC04F00001140EB76FF4
:1011B0007A0EE66E420EE66EC3EC1CF0E552E55286
:1011C00066EC03F0010803E100011E0EB76F56EC58
:1011D00003F0010802E0B9EF0EF00001280EB76F2E
:1011E00012002BEC13F0190EE66E420EE66EE66A64
:1011F000E66AAFEC15F0E552E552E552E552130E02
:10120000E66E420EE66EE66A010EE66EAFEC15F093
:10121000E552E552E552E5520001F151F2110CE1BF
:10122000DE0EE66E410EE66EC3EC1CF0E552E552B2
:10123000010E0001F16FF26BE65101E0DCD0E251EA
:10124000E3110FE1DC0EE66E410EE66E0F0EE66E68
:10125000010EE66EAFEC15F0E552E552E552E552AF
:101260001CD0BAC014F0BBC015F0166A176A15AED0
:1012700002D01668176814C0E6FF15C0E6FF16C056
:10128000E6FF17C0E6FF0F0EE66E010EE66E88EC75
:1012900014F0186E060EE15E18505AEC13F046EC8E
:1012A00003F0010813E10001BA2B000EBB23BB358C
:1012B00008E2BA510908000EBB5503E2010EBA6FED
:1012C000BB6B010EE26FE36BEB6BEC6B5EEC03F060
:1012D000010815E10001BA07000EBB5B010EBBAFB0
:1012E00002D0D89003D0BA5D000EBB5903E2090EBC
:1012F000BA6FBB6B010EE26FE36BEB6BEC6B6EECEA
:1013000003F0010809E138EC04F00001150EB76F95
:10131000A90EE66E410E57D14EEC03F0010802E033
:10132000B9EF0EF0BAC0C8F0BBC0C9F00001C85197
:10133000C425C06FC951C521C16F150EB76F38ECF8
:1013400004F00001E26BE36B840EE66E410EE66E84
:10135000C3EC1CF0E552E552C8C014F0C9C015F04A
:10136000166A176A15AE02D01668176814C0E6FF31
:1013700015C0E6FF16C0E6FF17C0E6FFE9EC1CF05B
:10138000E552E552E552E552780EE66E410EE66E04
:10139000C3EC1CF0E552E5520001A7D12BEC13F091
:1013A000690EE66E410EE66EE66AE66AAFEC15F08F
:1013B000E552E552E552E552610EE66E410EE66EEB
:1013C000E66A010EE66EAFEC15F0E552E552E55225
:1013D000E5520001F151F2110CE12D0EE66E410EC5
:1013E000E66EC3EC1CF0E552E552010E0001F16F10
:1013F000F26BE65104E0B769F16BF26B1200E25157
:10140000E31106E12A0EE66E410EE66E0E0E26D0C0
:10141000010EE2192DE1E3512BE1B8C014F0B9C07F
:1014200015F0166A176A15AE02D01668176814C050
:10143000E6FF15C0E6FF16C0E6FF17C0E6FF0E0E7A
:10144000E66E010EE66E88EC14F0186E060EE15E94
:101450001850DC0EE66E410EE66E0F0EE66E010EC3
:10146000E66EAFEC15F0E552E552E552E5523DD09F
:10147000020EE2193CE1E3513AE1B8C014F0B9C000
:1014800015F0166A176A15AE02D01668176814C0F0
:10149000E6FF15C0E6FF16C0E6FF17C0E6FF0E0E1A
:1014A000E66E010EE66E88EC14F0186E060EE15E34
:1014B0001850BAC014F0BBC015F0166A176A15AE02
:1014C00002D01668176814C0E6FF15C0E6FF16C004
:1014D000E6FF17C0E6FF0F0EE66E010EE66E88EC23
:1014E00014F0186E060EE15E18505AEC13F046EC3C
:1014F00003F001082DE10001E251E31103E1010EC7
:10150000E26FE36B010EE21910E1E3510EE1B82B3B
:10151000000EB923B9351AE2B8510908000EB955C1
:1015200015E2010EB86FB96B11D0020EE2190EE18F
:10153000E3510CE1BA2B000EBB23BB3507E2BA51D5
:101540000908000EBB5502E2BA6BBB6BEB6BEC6B90
:101550005EEC03F001082CE10001E251E31103E12C
:10156000010EE26FE36B010EE21912E1E35110E1AB
:10157000B807000EB95B010EB9AF02D0D89003D006
:10158000B85D000EB95912E2090EB86FB96B0ED0F2
:10159000020EE2190BE1E35109E1BA07000EBB5B51
:1015A000800EBB1503E0090EBA6FBB6BEB6BEC6BE7
:1015B0006EEC03F001080DE138EC04F00001B769AE
:1015C000F80EE66E400EE66EC3EC1CF0E552E552F6
:1015D00012004EEC03F0000901E1CBD30001010E33
:1015E000E21906E1E35104E1020EE26FE36B7DD004
:1015F000020EE21901E079D0E35101E076D00B0E42
:10160000B76F0A0E086E096AB8C00DF0B9C00EF0C7
:1016100066EC23F006500001BA25C46F0750BB21C9
:10162000C56FC451C825C06FC551C921C16FC0C0A5
:10163000BEF0BF6FC4C0C2F0C5C0C3F0C8C0C6F022
:10164000C9C0C7F0D40EE66E400EE66EC3EC1CF0C7
:10165000E552E552C4C014F0C5C015F0166A176A09
:1016600015AE02D01668176814C0E6FF15C0E6FF75
:1016700016C0E6FF17C0E6FFE9EC1CF0E552E552A4
:10168000E552E552780EE66E410EE66EC3EC1CF0B4
:10169000E552E552BE0EE66E400EE66EC3EC1CF05F
:1016A000E552E552C0C014F0C1C015F0166A176AC1
:1016B00015AE02D01668176814C0E6FF15C0E6FF25
:1016C00016C0E6FF17C0E6FFE9EC1CF0E552E55254
:1016D000E552E552780EE66E410EE66EC3EC1CF064
:1016E000E552E5520001F16BF26BEB6BEC6B120013
:1016F0002BEC13F0580EE66E420EE66EE66AE66AD2
:10170000AFEC15F0E552E552E552E5525C0EE66E9F
:10171000420EE66EE66A010EE66EAFEC15F0E5529B
:10172000E552E552E552000EE66EE66A25EC02F05F
:10173000E552E552010EE66EE66A4DEC02F0E55226
:10174000E552020EE66EE66A4DEC02F0E552E55215
:10175000030EE66EE66A4DEC02F0E552E552040E29
:10176000E66EE66A4DEC02F0E552E552050EE66ED5
:10177000E66A25EC02F0E552E5520001F151F21162
:1017800014E1B00EE66E400EE66EC3EC1CF0E552BE
:10179000E552A00EE66E400EE66EC3EC1CF0E5527C
:1017A000E552010E0001F16FF26B46EC03F0010807
:1017B0000DE138EC04F00001140EB76F7A0EE66EFE
:1017C000420EE66EC3EC1CF0E552E55266EC03F007
:1017D000010805E10001200EB76FF16BF26B56ECCA
:1017E00003F0010803E10001280EB76F6EEC03F06F
:1017F000010801E0BED2BAD22BEC13F05C0EE66E0B
:10180000420EE66EE66AE66AAFEC15F0E552E55286
:10181000E552E552580EE66E420EE66EE66A010E9D
:10182000E66EAFEC15F0E552E552E552E552000EDA
:10183000E66EE66A4DEC02F0E552E552010EE66E08
:10184000E66A4DEC02F0E552E552020EE66EE66AFB
:1018500025EC02F0E552E552030EE66EE66A25EC51
:1018600002F0E552E552040EE66EE66A4DEC02F037
:10187000E552E552050EE66EE66A4DEC02F0E552E1
:10188000E5520001F151F21114E1A00EE66E400E96
:10189000E66EC3EC1CF0E552E552B00EE66E400E6B
:1018A000E66EC3EC1CF0E552E552010E0001F16F4B
:1018B000F26B46EC03F001080DE138EC04F0000196
:1018C000140EB76F7A0EE66E420EE66EC3EC1CF095
:1018D000E552E55266EC03F0010805E10001210E36
:1018E000B76FF16BF26B56EC03F0010803E10001F6
:1018F000280EB76F6EEC03F0010801E03AD236D241
:101900002BEC13F0580EE66E420EE66EE66AE66ABF
:10191000AFEC15F0E552E552E552E552730EE66E76
:10192000420EE66EE66A010EE66EAFEC15F0E55289
:10193000E552E552E552000EE66EE66A25EC02F04D
:10194000E552E552010EE66EE66A4DEC02F0E55214
:10195000E552020EE66EE66A4DEC02F0E552E55203
:10196000030EE66EE66A4DEC02F0E552E552040E17
:10197000E66EE66A25EC02F0E552E552050EE66EEB
:10198000E66A4DEC02F0E552E5520001CB355DE22E
:10199000CA510008000ECB5558E2CAC014F0CBC0A3
:1019A00015F0166A176A15AE02D01668176814C0CB
:1019B000E6FF15C0E6FF16C0E6FF17C0E6FF0E0EF5
:1019C000E66E010EE66E88EC14F0186E060EE15E0F
:1019D0001850CAC0BCF0CBC0BDF00001E4513AE0E1
:1019E000B00EE66E400EE66EC3EC1CF0E552E5521A
:1019F0008F0EE66E400EE66EC3EC1CF0E552E5522B
:101A0000CAC014F0CBC015F0166A176A15AE02D022
:101A10001668176814C0E6FF15C0E6FF16C0E6FF9B
:101A200017C0E6FFE9EC1CF0E552E552E552E5523D
:101A3000A40EE66E420EE66EC3EC1CF0E552E552D3
:101A40000001CA07000ECB5B05D01F0EB76F030E57
:101A5000CA6FCB6B46EC03F001080DE138EC04F0E3
:101A60000001140EB76F7A0EE66E420EE66EC3ECFE
:101A70001CF0E552E55256EC03F0010803E10001C9
:101A8000280EB76F6EEC03F0010801E072D16ED141
:101A90002BEC13F0730EE66E420EE66EE66AE66A13
:101AA000AFEC15F0E552E552E552E552580EE66E00
:101AB000420EE66EE66A010EE66EAFEC15F0E552F8
:101AC000E552E552E552000EE66EE66A4DEC02F094
:101AD000E552E552010EE66EE66A25EC02F0E552AB
:101AE000E552020EE66EE66A4DEC02F0E552E55272
:101AF000030EE66EE66A25EC02F0E552E552040EAE
:101B0000E66EE66A4DEC02F0E552E552050EE66E31
:101B1000E66A4DEC02F0E552E5520001CB356DE28C
:101B2000CA510008000ECB5568E2CAC014F0CBC001
:101B300015F0166A176A15AE02D01668176814C039
:101B4000E6FF15C0E6FF16C0E6FF17C0E6FF0E0E63
:101B5000E66EE66A88EC14F0186E060EE15E185028
:101B6000640E086E096ACAC00DF0CBC00EF066ECB8
:101B700023F006C0BCF007C0BDF00001E45142E014
:101B80008F0EE66E400EE66EC3EC1CF0E552E55299
:101B9000CAC014F0CBC015F0166A176A15AE02D091
:101BA0001668176814C0E6FF15C0E6FF16C0E6FF0A
:101BB00017C0E6FFE9EC1CF0E552E552E552E552AC
:101BC000A40EE66E420EE66EC3EC1CF0E552E55242
:101BD000830EE66E400EE66EC3EC1CF0E552E55255
:101BE000A40EE66E420EE66EC3EC1CF0E552E55222
:101BF0000001CA07000ECB5B05D01E0EB76F030EA7
:101C0000CA6FCB6B46EC03F001080DE138EC04F031
:101C10000001140EB76F7A0EE66E420EE66EC3EC4C
:101C20001CF0E552E55256EC03F0010803E1000117
:101C3000280EB76F6EEC03F0010801E09AD096D041
:101C40002BEC13F0730EE66E420EE66EE66A010EA2
:101C5000E66EAFEC15F0E552E552E552E552730E33
:101C6000E66E420EE66EE66AE66AAFEC15F0E55205
:101C7000E552E552E552740EE66E400EE66EC3EC98
:101C80001CF0E552E5520001800EE81529E1E83527
:101C900004E2E7510708000EE85522E3000EE66E65
:101CA000E66A4DEC02F0E552E552010EE66EE66A98
:101CB0004DEC02F0E552E552020EE66EE66A4DEC9E
:101CC00002F0E552E552030EE66EE66A4DEC02F0D4
:101CD000E552E552040EE66EE66A4DEC02F021D0C4
:101CE000000EE66EE66A4DEC02F0E552E552010E9A
:101CF000E66EE66A25EC02F0E552E552020EE66E6B
:101D0000E66A4DEC02F0E552E552030EE66EE66A35
:101D10004DEC02F0E552E552040EE66EE66A25EC63
:101D200002F0E552E552050EE66EE66A4DEC02F071
:101D3000E552E55246EC03F001080DE138EC04F001
:101D40000001140EB76F7A0EE66E420EE66EC3EC1B
:101D50001CF0E552E55266EC03F0010803E10001D6
:101D60001E0EB76F6EEC03F0010803E10001B769C6
:041D7000120012004B
:0C1D7400D9CFE6FFE1CFD9FF040EE12635
:101D8000DE6ADD6ADECF14F0DDCF15F0166A176A61
:101D900015AE02D016681768D950FB0FE96EFF0E1A
:101DA000DA20EA6EEE50145CEE501558EE501658DC
:101DB000EE5017581DE2020EDB6A030EDB6A020EBC
:101DC000DBCF14F0030EDBCF15F0D890155004E6EE
:101DD000050E145C000E155806E2020EDB2A030EF7
:101DE000EEE3DB2AECD7DF2A010ECCE3DB2ACAD7ED
:101DF000040EE15C02E2E16AE552E16EE552E7CFF2
:101E0000D9FF1200D9CFE6FFE1CFD9FF040EE126BA
:101E1000DE6ADD6ADECF14F0DDCF15F0166A176AD0
:101E200015AE02D016681768D950FB0FE96EFF0E89
:101E3000DA20EA6EEE50145CEE501558EE5016584B
:101E4000EE5017581DE2020EDB6A030EDB6A020E2B
:101E5000DBCF14F0030EDBCF15F0D890155004E65D
:101E6000EE0E145C000E155806E2020EDB2A030E7D
:101E7000EEE3DB2AECD7DF2A010ECCE3DB2ACAD75C
:101E8000040EE15C02E2E16AE552E16EE552E7CF61
:101E9000D9FF1200D9CFE6FFE1CFD9FF0F0E81168F
:101EA000FE0EDB50F00B81128186010EE66EE66AB3
:101EB000E66AE66AA7DFE552E552E552E552819609
:101EC000010EE66EE66AE66AE66A9CDFE552E552D6
:101ED000E552E5520F0E8116FE0EDB38F00B811233
:101EE0008186010EE66EE66AE66AE66A8BDFE552F7
:101EF000E552E552E5528196010EE66EE66AE66A23
:101F0000E66A80DFE552E552E552E552E552E7CF59
:101F1000D9FF1200D9CFE6FFE1CFD9FFE652936A8D
:101F2000190EE66EE66AE66AE66A6CDFE552E5528D
:101F3000E552E5520F0E8116F80E81160F0E81162E
:101F4000300E81128186010EE66EE66AE66AE66A66
:101F500059DFE552E552E552E5528196010EE66EF3
:101F6000E66AE66AE66A4EDFE552E552E552E55278
:101F70000F0E8116300E81128186010EE66EE66A22
:101F8000E66AE66A3FDFE552E552E552E5528196A0
:101F9000010EE66EE66AE66AE66A34DFE552E5526D
:101FA000E552E5520F0E8116300E81128186010E28
:101FB000E66EE66AE66AE66A25DFE552E552E55234
:101FC000E5528196010EE66EE66AE66AE66A1ADF77
:101FD000E552E552E552E5520F0E8116818A81865F
:101FE000010EE66EE66AE66AE66A0CDFE552E55245
:101FF000E552E5528196010EE66EE66AE66AE66A09
:1020000001DFE552E552E552E552280EE66E42DF69
:10201000E5520C0EE66E3EDFE552E552E552E7CFA3
:10202000D9FF1200D9CFE6FFE1CFD9FF020EE1269A
:10203000DF6A010EDB6A81940F0EE66EE66AE66ADD
:10204000E66A98DEE552E552E552E5520F0E81123E
:102050008186E66EE66AE66AE66A8CDEE552E5525D
:10206000E552E5520F0E8114E76E010EE7CFDBFF5C
:1020700081960F0EE66EE66AE66AE66A7BDEE55258
:10208000E552E552E5520F0E81128186E66EE66A50
:10209000E66AE66A6FDEE552E552E552E5520F0E5A
:1020A0008114DF6E010EDB50DF128196010EE66EA9
:1020B000E66AE66AE66A5EDEE552E552E552E55218
:1020C000DF50146E020EE15C02E2E16AE552E16E5D
:1020D0001450E552E7CFD9FF1200D9CFE6FFE1CF88
:1020E000D9FFE652DF6A9EDFDF6EDFBEFCD7DF502E
:1020F000E552E552E7CFD9FF1200D9CFE6FFE1CF95
:10210000D9FF0F0E8116FE0EDB5081128186050E5F
:10211000E66EE66AE66AE66A2DDEE552E552E552CB
:10212000E5528196050EE66EE66AE66AE66A22DE0A
:10213000E552E552E552E552E552E7CFD9FF1200EC
:10214000D9CFE6FFE1CFD9FF8194050EE66EE66AAE
:10215000E66AE66A0FDEE552E552E552E552FE0E0A
:10216000DBCFE6FFCADFE552FE0EDB38F00BE66E92
:10217000C4DFE552E552E7CFD9FF1200D9CFE6FF21
:10218000E1CFD9FF8184050EE66EE66AE66AE66A6B
:10219000F1DDE552E552E552E552FE0EDBCFE6FFFA
:1021A000ACDFE552FE0EDB38F00BE66EA6DFE55243
:1021B0008194E552E7CFD9FF1200D9CFE6FFE1CFF6
:1021C000D9FFFE0EDBCFE6FFD9DFE552E552E7CFC0
:1021D000D9FF1200D9CFE6FFE1CFD9FFFE0EDBCF4A
:1021E000E6FFCCDFE552E552E7CFD9FF1200D9CFA9
:1021F000E6FFE1CFD9FFFD0EDBCFF6FFFE0EDBCF12
:10220000F7FF0800F5500FE0FD0EDBCFF6FFDB2AED
:10221000FE0EDBCFF7FF01E3DB2A0800F550E66E88
:10222000D9DFE552E8D7E552E7CFD9FF1200D9CF81
:10223000E6FFE1CFD9FFE652FD0EDB500F0B146E27
:10224000FE0EDB50010B400DF3501424DF6E7F0EA9
:10225000DF14800FDF6EDFCFE6FF72DFE552E5525D
:10226000E552E7CFD9FF1200010EE66E69DFE552B5
:10227000E66AE66ADCDFE552E5521200D9CFE6FFF6
:10228000E1CFD9FF050EE126010EF36EDB6E020EE3
:10229000DB6A030EDB6A040EDB6ADF6ADFCF14F051
:1022A000156A14BE1568FB0EDBCF16F0FC0EDBCFF3
:1022B00017F015501718E8AE02D0173404D0165096
:1022C000145C175015582DE2FD0EDBCF14F0FE0EF6
:1022D000DBCF15F0166A176A15AE02D016681768BC
:1022E000D950010FE96EDACFEAFF14C00BF015C028
:1022F0000CF016C00DF017C00EF0EECF06F0EECFCA
:1023000007F0EECF08F0EFCF09F02AEC24F005C07B
:10231000EDFF04C0EDFF03C0EDFF02C0EFFFDF2AB9
:10232000BDD7010EDBCF14F0020EDBCF15F0030E8C
:10233000DBCF16F0040EDBCF17F014C006F015C08B
:1023400007F016C008F017C009F0050EE15C02E2C4
:10235000E16AE552E16EE552E7CFD9FF1200D9CF2D
:10236000E6FFE1CFD9FF020EE126DF6AFB0EDBCFED
:1023700014F0FC0EDBCF15F0FD0EDBCF16F0FE0ED9
:10238000DBCF17F0145015101610171005E1300EA2
:10239000E66E20DFE552F4D0D950FB0FE96EFF0E58
:1023A000DA20EA6ED890030EEB50000A08E6000E21
:1023B000EE5C000EEE58000EEE58000EEE5815E2E0
:1023C0002D0EE66E07DFE552D950FB0FE96EFF0ECA
:1023D000DA20EA6E000EEE6CEF1EEE22EF1EEE2209
:1023E000EF1EEF22ED52ED52ED52DE52070EDD6E82
:1023F000010EDBCF14F0000EE76E1418E8AE02D029
:10240000143403D0E750D880145401E3B9D0010E3E
:10241000DB04186E196A18BE196818C0E6FF19C0E7
:10242000E6FF0A0EE66EE66A29DFE552E552E5525E
:10243000E55206C014F007C015F008C016F009C038
:1024400017F006C00BF007C00CF008C00DF009C073
:102450000EF0FB0EDBCF06F0FC0EDBCF07F0FD0E1F
:10246000DBCF08F0FE0EDBCF09F062EC24F0065063
:1024700007100810091041E0010EDF6EDB041C6E2E
:102480001D6A1CBE1D681CC0E6FF1DC0E6FF0A0ECB
:10249000E66EE66AF3DEE552E552E552E55206C025
:1024A00018F007C019F008C01AF009C01BF006C0E8
:1024B0000BF007C00CF008C00DF009C00EF0FB0EC9
:1024C000DBCF06F0FC0EDBCF07F0FD0EDBCF08F014
:1024D000FE0EDBCF09F062EC24F006C014F007C05A
:1024E00015F008C016F009C017F0300E1426000EC3
:1024F000152216221722145003D0DF5004E0300EAC
:10250000E66E68DEE552010EDB04186E196A18BE2D
:10251000196818C0E6FF19C0E6FF0A0EE66EE66A03
:10252000ADDEE552E552E552E55206C014F007C0B3
:1025300015F008C016F009C017F0D950FB0FE96E6E
:10254000FF0EDA20EA6E06C00BF007C00CF008C0E0
:102550000DF009C00EF0EECF06F0EECF07F0EECF93
:1025600008F0EFCF09F062EC24F005C0EDFF04C0E5
:10257000EDFF03C0EDFF02C0EFFF010EDB0638D711
:10258000020EE15C02E2E16AE552E16EE552E7CF5C
:10259000D9FF1200D9CFE6FFE1CFD9FFFD0EDBCF87
:1025A000E6FFFE0EDBCFE6FF42DEE552E552D950F4
:1025B000F90FE96EFF0EDA20EA6EEECFE6FFEECFFE
:1025C000E6FFEECFE6FFEFCFE6FFC9DEE552E552CC
:1025D000E552E552E552E7CFD9FF1200D9CFE6FF29
:1025E000E1CFD9FFFD0EDBCFE6FFFE0EDBCFE6FF2E
:1025F0001EDEE552E552FB0EDBCFE6FFFC0EDBCF25
:10260000E6FFF5DDE552E552E552E7CFD9FF1200CE
:10261000D9CFE6FFE1CFD9FFFCC014F0FDC015F023
:10262000040ED89014361536E806FBE1410E142648
:10263000010E152214500001FE25E96E1550FF21F0
:10264000EA6EFE0EDBCFEFFFFE2B000EFF23E552FE
:10265000E7CFD9FF1200D9CFE6FFE1CFD9FFE6528D
:10266000DF6ADFCF14F0100EE76E1418E8AE02D068
:10267000E73402D0E750145C18E2DFCFE9FFEA6AE2
:10268000E9BEEA68410EE926010EEA22200EEF6E4D
:10269000DFCFE9FFEA6AE9BEEA68510EE926010EDA
:1026A000EA22200EEF6EDF2ADCD7E552E552E7CFB3
:1026B000D9FF1200D9CFE6FFE1CFD9FFE6520101E1
:1026C0004051030A52E0010A36E0030A1AE0010A07
:1026D00067E1E66AE66AABDDE552E552DF6A080EBD
:1026E000DF5C0CE2DF50EA6A410FE96E010EEA227C
:1026F000EF50E66E6FDDE552DF2AF1D70101010EE2
:1027000032D0080EE66EE66A92DDE552E552DF6AE7
:10271000080EDF5C0DE2080EDF24EA6A410FE96E65
:10272000010EEA22EF50E66E55DDE552DF2AF0D7C2
:102730000101020E18D0E66A010EE66E78DDE55260
:10274000E552DF6A080EDF5C0CE2DF50EA6A510FE7
:10275000E96E010EEA22EF50E66E3CDDE552DF2A1B
:10276000F1D70101030E406F1CD0080EE66E010E7A
:10277000E66E5DDDE552E552DF6A080EDF5C0DE2D4
:10278000080EDF24EA6A510FE96E010EEA22EF50CB
:10279000E66E20DDE552DF2AF0D70101406B01D063
:1027A000406BE552E552E7CFD9FF1200D9CFE6FFE3
:1027B000E1CFD9FFE65201014051010A1BE0010AB5
:1027C00032E1E66AE66A33DDE552E552DF6A100E71
:1027D000DF5C0CE2DF50EA6A410FE96E010EEA228B
:1027E000EF50E66EF7DCE552DF2AF1D70101010E6A
:1027F000406F1AD0E66A010EE66E19DDE552E55229
:10280000DF6A100EDF5C0CE2DF50EA6A510FE96EFE
:10281000010EEA22EF50E66EDDDCE552DF2AF1D749
:102820000101406B01D0406BE552E552E7CFD9FF83
:102830001200D9CFE6FFE1CFD9FFE652E66AE66A99
:10284000F6DCE552E552DF6A100EDF5C0CE2DF5089
:10285000EA6A410FE96E010EEA22EF50E66EBADC39
:10286000E552DF2AF1D7E66A010EE66EE0DCE552BA
:10287000E552DF6A100EDF5C0CE2DF50EA6A510FAE
:10288000E96E010EEA22EF50E66EA4DCE552DF2A83
:10289000F1D7E552E552E7CFD9FF1200D9CFE6FFD5
:1028A000E1CFD9FFFE0EDB50010B0001FC6FFD6B89
:1028B000FD0EDB500F0BFE6FFF6BFC0EDB500A08AA
:1028C00002E1610E05D0FC0EDB500D0805E1640E3F
:1028D000F36EFC0EF3CFDBFFFCC014F0FDC015F06F
:1028E000040ED89014361536E806FBE1410E142686
:1028F000010E152214500001FE25E96E1550FF212E
:10290000EA6EFC0EDBCFEFFFE552E7CFD9FF1200F6
:10291000D9CFE6FFE1CFD9FF020EE126DF6AFE0E36
:10292000DB50010B0001FC6FFD6BFD0EDB500F0B4C
:10293000FE6FFF6BF90EDBCF14F0FA0EDBCF15F054
:10294000FB0EDBCF16F0FC0EDBCF17F0145015108A
:102950001610171005E1300EE66E5ADEE552F5D07E
:10296000D950F90FE96EFF0EDA20EA6ED890030E07
:10297000EB50000A08E6000EEE5C000EEE58000E6A
:10298000EE58000EEE5815E22D0EE66E41DEE552D1
:10299000D950F90FE96EFF0EDA20EA6E000EEE6CE8
:1029A000EF1EEE22EF1EEE22EF1EEF22ED52ED5251
:1029B000ED52DE52070EDD6E010EDBCF14F0000E7D
:1029C000E76E1418E8AE02D0143403D0E750D88074
:1029D000145401E3BAD0010EDB04186E196A18BE54
:1029E000196818C0E6FF19C0E6FF0A0EE66EE66A2F
:1029F00045DCE552E552E552E55206C014F007C049
:102A000015F008C016F009C017F006C00BF007C09B
:102A10000CF008C00DF009C00EF0F90EDBCF06F087
:102A2000FA0EDBCF07F0FB0EDBCF08F0FC0EDBCF9E
:102A300009F062EC24F0065007100810091041E07C
:102A4000010EDF6EDB041C6E1D6A1CBE1D681CC0FF
:102A5000E6FF1DC0E6FF0A0EE66EE66A0FDCE552F1
:102A6000E552E552E55206C018F007C019F008C05B
:102A70001AF009C01BF006C00BF007C00CF008C02C
:102A80000DF009C00EF0F90EDBCF06F0FA0EDBCF29
:102A900007F0FB0EDBCF08F0FC0EDBCF09F062EC99
:102AA00024F006C014F007C015F008C016F009C0E5
:102AB00017F0300E1426000E15221622172214507D
:102AC00003D0DF5004E0300EE66EA2DDE552010EC9
:102AD000DB04186E196A18BE196818C0E6FF19C021
:102AE000E6FF0A0EE66EE66A3EEC11F0E552E552AC
:102AF000E552E55206C014F007C015F008C016F004
:102B000009C017F0D950F90FE96EFF0EDA20EA6E0E
:102B100006C00BF007C00CF008C00DF009C00EF0A5
:102B2000EECF06F0EECF07F0EECF08F0EFCF09F0D2
:102B300062EC24F005C0EDFF04C0EDFF03C0EDFF23
:102B400002C0EFFF010EDB0637D7020EE15C02E2A6
:102B5000E16AE552E16EE552E7CFD9FF1200D9CF25
:102B6000E6FFE1CFD9FFFE0EDB50010B0001FC6F49
:102B7000FD6BFD0EDB500F0BFE6FFF6BFB0EDBCF13
:102B8000F6FFFC0EDBCFF7FF0800F5500FE0FB0E61
:102B9000DBCFF6FFDB2AFC0EDBCFF7FF01E3DB2AFE
:102BA0000800F550E66E34DDE552E8D7E552E7CF90
:042BB000D9FF120037
:0C2BB4000F0E946E82681200070E941041
:102BC000946EDF0E9414946E82681200D9CFE6FFE3
:102BD000E1CFD9FF040EE126DE6ADD6ADECF14F014
:102BE000DDCF15F0D890155004E6040E145C000EED
:102BF000155801E390D0DECFE9FFDDCFEAFF810E6B
:102C0000E926010EEA22EF1C826E020EDB6A030E39
:102C1000DB6A020EDBCF14F0030EDBCF15F0D89089
:102C2000155004E6040E145C000E15586EE2020EF8
:102C3000DBCFE9FF030EDBCFEAFF850EE926010EAD
:102C4000EA22EF5082143FE1DECF18F0DDCF19F019
:102C5000D89018361936D89018361936020EDB502F
:102C60001824E96E030EDB501920EA6ED890E9367D
:102C7000EA36610EE926010EEA22EECF16F0EFCF1A
:102C800017F0010E1626000E1722DECF14F0DDCF4E
:102C900015F0D89014361536D89014361536020E25
:102CA000DB501424E96E030EDB501520EA6ED89039
:102CB000E936EA36610EE926010EEA2216C0EEFF79
:102CC00017C0EDFF1BD0DECF14F0DDCF15F0D8908C
:102CD00014361536D89014361536020EDB501424EF
:102CE000E96E030EDB501520EA6ED890E936EA361D
:102CF000610EE926010EEA22EE6AED6A020EDB2A77
:102D0000030E01E286D7DB2A84D7DF2A010E01E217
:102D100065D7DB2A63D7040EE15C02E2E16AE55283
:102D2000E16EE552E7CFD9FF1200D9CFE6FFE1CF40
:102D3000D9FF040EE126DE6ADD6ADECF14F0DDCFB6
:102D400015F0D890155004E6020E145C000E1558CC
:102D500001E391D0DECFE9FFDDCFEAFF810EE92666
:102D6000010EEA22EF1C8214826E020EDB6A030E51
:102D7000DB6A020EDBCF14F0030EDBCF15F0D89028
:102D8000155004E6040E145C000E15586EE2020E97
:102D9000DBCFE9FF030EDBCFEAFF850EE926010E4C
:102DA000EA22EF5082143FE1DECF18F0DDCF19F0B8
:102DB000D89018361936D89018361936020EDB50CE
:102DC0001824E96E030EDB501920EA6ED890E9361C
:102DD000EA36610EE926010EEA22EECF16F0EFCFB9
:102DE00017F0010E1626000E1722DECF14F0DDCFED
:102DF00015F0D89014361536D89014361536020EC4
:102E0000DB501424E96E030EDB501520EA6ED890D7
:102E1000E936EA36610EE926010EEA2216C0EEFF17
:102E200017C0EDFF1BD0DECF14F0DDCF15F0D8902A
:102E300014361536D89014361536020EDB5014248D
:102E4000E96E030EDB501520EA6ED890E936EA36BB
:102E5000610EE926010EEA22EE6AED6A020EDB2A15
:102E6000030E01E286D7DB2A84D7DF2A010E01E2B6
:102E700064D7DB2A62D7040EE15C02E2E16AE55224
:102E8000E16EE552E7CFD9FF1200D9CFE6FFE1CFDF
:102E9000D9FF040EE126DE6ADD6A020EDB6A030E4C
:102EA000DB6A0101811D8214826E020EDB6A030E51
:102EB000DB6A020EDBCF14F0030EDBCF15F0D890E7
:102EC000155004E6040E145C000E15586EE2020E56
:102ED000DBCFE9FF030EDBCFEAFF850EE926010E0B
:102EE000EA22EF5082143FE1DECF18F0DDCF19F077
:102EF000D89018361936D89018361936020EDB508D
:102F00001824E96E030EDB501920EA6ED890E936DA
:102F1000EA36610EE926010EEA22EECF16F0EFCF77
:102F200017F0010E1626000E1722DECF14F0DDCFAB
:102F300015F0D89014361536D89014361536020E82
:102F4000DB501424E96E030EDB501520EA6ED89096
:102F5000E936EA36610EE926010EEA2216C0EEFFD6
:102F600017C0EDFF1BD0DECF14F0DDCF15F0D890E9
:102F700014361536D89014361536020EDB5014244C
:102F8000E96E030EDB501520EA6ED890E936EA367A
:102F9000610EE926010EEA22EE6AED6A020EDB2AD4
:102FA000030E01E286D7DB2A84D7040EE15C02E23D
:102FB000E16AE552E16EE552E7CFD9FF1200D9CFC1
:102FC000E6FFE1CFD9FF040EE126DE6ADD6A020EDC
:102FD000DB6A030EDB6A010EDE6EDD6ADECFE9FF1F
:102FE000DDCFEAFF810EE926010EEA22EF1C8214F2
:102FF000826E020EDB6A030EDB6A020EDBCF14F078
:10300000030EDBCF15F0D890155004E6030E145CC8
:10301000000E15586EE2020EDBCFE9FF030EDBCF88
:10302000EAFF850EE926010EEA22EF5082143FE105
:10303000DECF18F0DDCF19F0D89018361936D890B9
:1030400018361936020EDB501824E96E030EDB50D9
:103050001920EA6ED890E936EA36610EE926010EAB
:10306000EA22EECF16F0EFCF17F0010E1626000E73
:103070001722DECF14F0DDCF15F0D89014361536B8
:10308000D89014361536020EDB501424E96E030E68
:10309000DB501520EA6ED890E936EA36610EE92653
:1030A000010EEA2216C0EEFF17C0EDFF1BD0DECFE7
:1030B00014F0DDCF15F0D89014361536D8901436AC
:1030C0001536020EDB501424E96E030EDB5015207A
:1030D000EA6ED890E936EA36610EE926010EEA2258
:1030E000EE6AED6A020EDB2A030E01E286D7DB2AC6
:1030F00084D7040EE15C02E2E16AE552E16EE5523A
:10310000E7CFD9FF1200D9CFE6FFE1CFD9FF040EF8
:10311000E126DE6ADD6ADECF14F0DDCF15F0FD0EAC
:10312000DBCF16F0FE0EDBCF17F015501718E8AE08
:1031300002D0173404D01650145C175015581DE2F5
:10314000020EDB6A030EDB6A020EDBCF14F0030E05
:10315000DBCF15F0D890155004E6EE0E145C000E8F
:10316000155806E2020EDB2A030EEEE3DB2AECD74B
:10317000DF2A010ED0E3DB2ACED7040EE15C02E2A7
:10318000E16AE552E16EE552E7CFD9FF1200D9CFEF
:10319000E6FFE1CFD9FF040EE126DE6ADD6ADECF6D
:1031A00014F0DDCF15F0D890155004E6040E145C31
:1031B000000E155875E2DECFE9FFDDCFEAFF810E84
:1031C000E926010EEA22EF1C826E020EDB6A030E74
:1031D000DB6A020EDBCF14F0030EDBCF15F0D890C4
:1031E000155004E6040E145C000E15584AE2DECFBA
:1031F00014F0DDCF15F0D89014361536D89014366B
:103200001536020EDB501424E96E030EDB50152038
:10321000EA6ED890E936EA36610EE926010EEA2216
:10322000EE6AED6A020EDBCFE9FF030EDBCFEAFFA9
:10323000850EE926010EEA22EF5082141CE1DECF52
:1032400014F0DDCF15F0D89014361536D89014361A
:103250001536020EDB501424E96E030EDB501520E8
:10326000EA6ED890E936EA36610EE926010EEA22C6
:10327000010EEE6EED6A020EDB2A030EAAE3DB2AD4
:10328000A8D78250816EE80EE66E030EE66E3BDF35
:10329000E552E552DF2A010E01E281D7DB2A7FD712
:1032A000040EE15C02E2E16AE552E16EE552E7CF2D
:1032B000D9FF1200D9CFE6FF040EE12684B005D075
:1032C0000101612B000E622303D00101616B626B6F
:1032D00084B204D0632B000E642302D0636B646B52
:1032E00084B404D0652B000E662302D0656B666B38
:1032F00082B004D0672B000E682302D0676B686B26
:1033000082B204D0692B000E6A2302D0696B6A6B0B
:1033100082B404D06B2B000E6C2302D06B6B6C6BF1
:1033200082BA04D06D2B000E6E2302D06D6B6E6BD3
:1033300081B004D06F2B000E702302D06F6B706BC6
:10334000040EE15C02E2E16AE552E16EE552E7CF8C
:10335000D9FF1200070E9610966E270E9410946EE9
:08336000010E9310936E1200A0
:08336800D9CFE6FFE1CFD9FF48
:10337000D59EFD0EDBCF89F1FE0EDBCF8AF1D59C09
:1033800017681868196A89C11AF08AC11BF01C6A8B
:103390001A50175C146E1B501858156E1C50195893
:1033A000166E0C6A010E0D6E0E6A14C007F015C081
:1033B00008F016C009F039EC23F00350D66E1768F8
:1033C0001868196A89C11AF08AC11BF01C6A1A5060
:1033D000175C146E1B501858156E1C501958166E39
:1033E0000C6A010E0D6E0E6A14C007F015C008F0CD
:1033F00016C009F039EC23F007C014F008C015F02E
:1034000009C016F00750D76ED59AD586F28AF29485
:10341000F184D58EE552E7CFD9FF1200D59E120078
:1034200017681868196A89C11AF08AC11BF01C6AEA
:103430001A50175C146E1B501858156E1C501958F2
:10344000166E0C6A010E0D6E0E6A14C007F015C0E0
:1034500008F016C009F039EC23F00350D66E176857
:103460001868196A89C11AF08AC11BF01C6A1A50BF
:10347000175C146E1B501858156E1C501958166E98
:103480000C6A010E0D6E0E6A14C007F015C008F02C
:1034900016C009F039EC23F007C014F008C015F08D
:1034A00009C016F00750D76ED58E1200D9CFE6FFAF
:1034B000E1CFD9FFCD90FD0EDBCF8BF1FE0EDBCF40
:1034C0008CF117681868196A8BC11AF08CC11BF04F
:1034D0001C6A1A50175C146E1B501858156E1C503D
:1034E0001958166E0C6A010E0D6E0E6A14C007F0A4
:1034F00015C008F016C009F039EC23F00750CF6E64
:1035000017681868196A8BC11AF08CC11BF01C6A05
:103510001A50175C146E1B501858156E1C50195811
:10352000166E0C6A010E0D6E0E6A14C007F015C0FF
:1035300008F016C009F039EC23F003C014F004C001
:1035400015F005C016F00350CE6E9D809E909F90A2
:10355000CD8ECD8CCD98CD9ACD96CD92CD80E552A5
:10356000E7CFD9FF120017681868196A8BC11AF0E3
:103570008CC11BF01C6A1A50175C146E1B50185833
:10358000156E1C501958166E0C6A010E0D6E0E6ADF
:1035900014C007F015C008F016C009F039EC23F08C
:1035A0000750CF6E17681868196A8BC11AF08CC162
:1035B0001BF01C6A1A50175C146E1B501858156EBD
:1035C0001C501958166E0C6A010E0D6E0E6A14C04E
:1035D00007F015C008F016C009F039EC23F003C05D
:1035E00014F004C015F005C016F00350CE6ECD8067
:1035F0001200CD901200D9CFE6FFE1CFD9FFCA94D7
:10360000CC6AFE0EDB5001018D6F8E6BCB6E9D82FE
:103610009E929F92CA90CA92CA84E552E7CFD9FF80
:1036200012008DC1CBFFCA841200CA941200D9CFF8
:10363000E6FFE1CFD9FFB190FD0EDBCF8FF1FE0E9B
:10364000DBCF90F117681868196A8FC11AF090C122
:103650001BF01C6A1A50175C146E1B501858156E1C
:103660001C501958166E0C6A010E0D6E0E6A14C0AD
:1036700007F015C008F016C009F039EC23F0075028
:10368000B36E17681868196A8FC11AF090C11BF0E1
:103690001C6A1A50175C146E1B501858156E1C507B
:1036A0001958166E0C6A010E0D6E0E6A14C007F0E2
:1036B00015C008F016C009F039EC23F003C014F06F
:1036C00004C015F005C016F00350B26EA082A1929E
:1036D000A292B18EB198B19AB192B180E552E7CF82
:1036E000D9FF120017681868196A8FC11AF090C1C3
:1036F0001BF01C6A1A50175C146E1B501858156E7C
:103700001C501958166E0C6A010E0D6E0E6A14C00C
:1037100007F015C008F016C009F039EC23F003508B
:10372000B26E17681868196A8FC11AF090C11BF041
:103730001C6A1A50175C146E1B501858156E1C50DA
:103740001958166E0C6A010E0D6E0E6A14C007F041
:1037500015C008F016C009F039EC23F007C014F0CA
:1037600008C015F009C016F00750B36EB180120002
:10377000B19012000101992B000E9A23A151995D7D
:10378000A2519A5904E3996B9A6B010E916F120042
:1037900001019B2B000E9C23A3519B5DA4519C59BE
:1037A00004E39B6B9C6B010E926F120001019D2B39
:1037B000000E9E23A5519D5DA6519E5904E39D6B6D
:1037C0009E6B010E936F120001019F2B000EA02330
:1037D000A7519F5DA851A05904E39F6BA06B010EF8
:1037E000946F1200D9CFE6FFE1CFD9FFFD0EDBCFFA
:1037F000A1F1FE0EDBCFA2F10101996B9A6B916BE7
:10380000E552E7CFD9FF1200D9CFE6FFE1CFD9FFCC
:10381000FD0EDBCFA3F1FE0EDBCFA4F1050E0D6E86
:103820000E6AA3C108F0A4C109F013EC23F008C08C
:10383000A3F109C0A4F101019B6B9C6B926BE55253
:10384000E7CFD9FF1200D9CFE6FFE1CFD9FFFD0EB8
:10385000DBCFA7F1FE0EDBCFA8F10A0E0D6E0E6ACC
:10386000A7C108F0A8C109F013EC23F008C0A7F124
:1038700009C0A8F101019F6BA06B946BE552E7CFE3
:04388000D9FF12005A
:0C388400B06A810EAF6EAC8AAC94B886BE
:10389000AC98AB8EAB889E9A9D8A9F9A949C948E8E
:1038A0001200D9CFE6FFE1CFD9FF040EE126DE6A90
:1038B000DD6ADECF14F0DDCF15F0FD0EDBCF16F0A4
:1038C000FE0EDBCF17F015501718E8AE02D01734F4
:1038D00004D01650145C175015581DE2020EDB6A16
:1038E000030EDB6A020EDBCF14F0030EDBCF15F004
:1038F000D890155004E6EE0E145C000E155806E242
:10390000020EDB2A030EEEE3DB2AECD7DF2A010EE0
:10391000D0E3DB2ACED7040EE15C02E2E16AE55295
:10392000E16EE552E7CFD9FF1200D9CFE6FFE1CF34
:10393000D9FF9EA8FED7FE0EDB50AD6E9E98E552D5
:10394000E7CFD9FF1200D9CFE6FFE1CFD9FFFD0EB7
:10395000DBCFE9FFFE0EDBCFEAFFEF5010E0FD0EFC
:10396000DBCFE9FFFE0EDBCFEAFFEF50E66EDDDFD7
:10397000E552FD0EDB2AFE0EEAE3DB2AE8D7E5522C
:10398000E7CFD9FF1200D9CFE6FFE1CFD9FFFD0E77
:10399000DBCFF6FFFE0EDBCFF7FF0800F55015E09A
:1039A000FD0EDBCFF6FFFE0EDBCFF7FF0800F55074
:1039B000E66EBBDFE552FD0EDBCFF6FFDB2AFE0E27
:1039C000DBCFF7FFE4E3DB2AE2D7E552E7CFD9FF0D
:1039D0001200D9CFE6FFE1CFD9FF020EE126DF6A60
:1039E000FB0EDBCF14F0FC0EDBCF15F0FD0EDBCFB2
:1039F00016F0FE0EDBCF17F014501510161017102E
:103A000005E1300EE66E91DFE552F4D0D950FB0FA0
:103A1000E96EFF0EDA20EA6ED890030EEB50000A32
:103A200008E6000EEE5C000EEE58000EEE58000E9A
:103A3000EE5815E22D0EE66E78DFE552D950FB0FF9
:103A4000E96EFF0EDA20EA6E000EEE6CEF1EEE223B
:103A5000EF1EEE22EF1EEF22ED52ED52ED52DE523E
:103A60000A0EDD6E010EDBCF14F0000EE76E1418A7
:103A7000E8AE02D0143403D0E750D880145401E3E8
:103A8000B9D0010EDB04186E196A18BE196818C087
:103A9000E6FF19C0E6FF0A0EE66EE66AB5D8E55203
:103AA000E552E552E55206C014F007C015F008C013
:103AB00016F009C017F006C00BF007C00CF008C0E4
:103AC0000DF009C00EF0FB0EDBCF06F0FC0EDBCFD5
:103AD00007F0FD0EDBCF08F0FE0EDBCF09F062EC45
:103AE00024F0065007100810091041E0010EDF6EA7
:103AF000DB041C6E1D6A1CBE1D681CC0E6FF1DC0D9
:103B0000E6FF0A0EE66EE66A7FD8E552E552E55218
:103B1000E55206C018F007C019F008C01AF009C035
:103B20001BF006C00BF007C00CF008C00DF009C078
:103B30000EF0FB0EDBCF06F0FC0EDBCF07F0FD0E28
:103B4000DBCF08F0FE0EDBCF09F062EC24F006C0FC
:103B500014F007C015F008C016F009C017F0300EB9
:103B60001426000E152216221722145003D0DF50FF
:103B700004E0300EE66ED9DEE552010EDB04186E6D
:103B8000196A18BE196818C0E6FF19C0E6FF0A0EC8
:103B9000E66EE66A39D8E552E552E552E55206C0CE
:103BA00014F007C015F008C016F009C017F0D9507E
:103BB000FB0FE96EFF0EDA20EA6E06C00BF007C0BD
:103BC0000CF008C00DF009C00EF0EECF06F0EECFFD
:103BD00007F0EECF08F0EFCF09F062EC24F005C05B
:103BE000EDFF04C0EDFF03C0EDFF02C0EFFF010ECB
:103BF000DB0638D7020EE15C02E2E16AE552E16ED3
:103C0000E552E7CFD9FF1200D9CFE6FFE1CFD9FFC8
:103C1000050EE126010EF36EDB6E020EDB6A030E6B
:103C2000DB6A040EDB6ADF6ADFCF14F0156A14BEAC
:103C30001568FB0EDBCF16F0FC0EDBCF17F015502E
:103C40001718E8AE02D0173404D01650145C175081
:103C500015582DE2FD0EDBCF14F0FE0EDBCF15F074
:103C6000166A176A15AE02D016681768D950010F88
:103C7000E96EDACFEAFF14C00BF015C00CF016C0E5
:103C80000DF017C00EF0EECF06F0EECF07F0EECF3E
:103C900008F0EFCF09F02AEC24F005C0EDFF04C0D6
:103CA000EDFF03C0EDFF02C0EFFFDF2ABDD7010E1D
:103CB000DBCF14F0020EDBCF15F0030EDBCF16F0D6
:103CC000040EDBCF17F014C006F015C007F016C0C5
:103CD00008F017C009F0050EE15C02E2E16AE55266
:103CE000E16EE552E7CFD9FF1200D9CFE6FFE1CF71
:103CF000D9FFE652AE50DF6E700EE66E400EE66EF5
:103D0000E66A010EE66EAFEC15F0E552E552E552BB
:103D1000E552DFCFE6FFE66A010EE66E88EC14F0AE
:103D2000E552E552E552E552E552E7CFD9FF1200E0
:103D3000D9CFE6FFE1CFD9FF020EE126FE0EDB5020
:103D40000F0BDF6EFE0EDB380F0B0A0D010EF3CFEB
:103D5000DBFFDB50DF24146E020EE15C02E2E16A5D
:103D6000E552E16E1450E552E7CFD9FF1200D9CFEA
:103D7000E6FFE1CFD9FF020EE1260A0E146E0E6EA9
:103D8000FE0EDBCF09F0F3EC24F00550DF6E0A0ED7
:103D9000146E0E6EFE0EDBCF09F0F3EC24F009502A
:103DA000100D010EF3CFDBFFDB50DF24146E020E8B
:103DB000E15C02E2E16AE552E16E1450E552E7CFC0
:103DC000D9FF120094869488C79EC79CC690C6925D
:103DD000C694C686310EC86EC68A1200D9CFE6FFD9
:103DE000E1CFD9FF9E96FE0EDB50D00FC96E9EA686
:103DF000FED7E552E7CFD9FF1200D9CFE6FFE1CFDA
:103E0000D9FF9E96FE0EDB50A00FC96E9EA6FED770
:103E1000E552E7CFD9FF12009E96C5809EA6FED739
:103E200012009E96C5849EA6FED71200D9CFE6FF4B
:103E3000E1CFD9FF9E96FE0EDB50C96E9EA6FED73F
:103E4000E552E7CFD9FF12009E96C5869EA6FED703
:103E5000C95012009E96C59AC5889EA6FED712002C
:103E60009E96C58AC5889EA6FED71200D9CFE6FFCA
:103E7000E1CFD9FFD1DFE66AB1DFE5520101010EE2
:103E8000E56FE85004E0C550400BFAE0F8D7FE0EAD
:103E9000DBCFE6FFCBDFE5520101010EE56FE85015
:103EA00004E0C550400BFAE0F8D7FD0EDBCFE6FF8B
:103EB0005EDFE552E66EBADFE5520101010EE56F05
:103EC000E85004E0C550400BFAE0F8D7AADFE5520D
:103ED000E7CFD9FF1200D9CFE6FFE1CFD9FF9CDFB2
:103EE000E66A8BDFE5520101010EE56FE85004E060
:103EF000C550400BFAE0F8D7FE0EDBCFE6FF96DFA9
:103F0000E5520101010EE56FE85004E0C550400B99
:103F1000FAE0F8D7FD0EDBCF14F0FE0EDBCF15F084
:103F20000001156A1450E66E81DFE5520101010EB1
:103F3000E56FE85004E0C550400BFAE0F8D7FC0EFE
:103F4000DBCFE6FF73DFE5520101010EE56FE850BC
:103F500004E0C550400BFAE0F8D763DFE552E7CF45
:103F6000D9FF1200D9CFE6FFE1CFD9FFE65254DFE7
:103F7000E66A34DFE5520101010EE56FE85004E026
:103F8000C550400BFAE0F8D7FE0EDBCFE6FF4EDF60
:103F9000E5520101010EE56FE85004E0C550400B09
:103FA000FAE0F8D739DF010EE66E18DFE5520101BD
:103FB000010EE56FE85004E0C550400BFAE0F8D779
:103FC00043DFDF6EDFCFE6FFB3DEE552DF6EDF50AB
:103FD000E552E552E7CFD9FF1200D9CFE6FFE1CF96
:103FE000D9FFE65219DFE66A08DFE5520101010E4A
:103FF000E56FE85004E0C550400BFAE0F8D7FE0E3C
:10400000DBCFE6FF13DFE5520101010EE56FE8505B
:1040100004E0C550400BFAE0F8D7FD0EDBCF14F0FA
:10402000FE0EDBCF15F00001156A1450E66EFEDEC1
:10403000E5520101010EE56FE85004E0C550400B68
:10404000FAE0F8D7E9DE010EE66ED7DEE5520101AF
:10405000010EE56FE85004E0C550400BFAE0F8D7D8
:10406000F3DEDF6EDF50E552E552E7CFD9FF1200F5
:104070002020200043415554494F4E204D4F444588
:104080000D0A005B4D414E55414C5D524544005B6D
:104090004D414E55414C5D59454C4C4F573A2000CF
:1040A0005B4D414E55414C5D475245454E0D0A0012
:1040B0005B4D414E55414C5D5245440D0A00596FD0
:1040C0007572207265642074696D65206973206E55
:1040D0006F7720005375636365737366756C6C79D5
:1040E000206368616E67656420677265656E207421
:1040F000696D6520746F2000596F75206573636169
:104100007065642066726F6D2073657420677265D8
:10411000656E206D6F646520776974686F757420B3
:10412000736176696E672E0D0A002D2D005573653B
:1041300020627574746F6E7320696E20796F75726A
:1041400020626F61726420746F206368616E6765BE
:1041500020677265656E2074696D652E2E2E0D0ABE
:10416000002831302D393929005345542047524514
:10417000454E2054494D4500207365636F6E64734E
:104180002E0D0A005375636365737366756C6C79E5
:10419000206368616E6765642079656C6C6F772059
:1041A00074696D6520746F2000596F7520657363A5
:1041B000617065642066726F6D2073657420796527
:1041C0006C6C6F77206D6F646520776974686F75AC
:1041D0007420736176696E672E0D0A002D00557389
:1041E0006520627574746F6E7320696E20796F75C7
:1041F0007220626F61726420746F206368616E6701
:10420000652079656C6C6F772074696D652E2E2E34
:104210000D0A0028312D3929005345542059454CA9
:104220004C4F572054494D45005B526F616420311B
:104230005D59454C4C4F573A20005B526F616420EA
:10424000325D5245443A20005B526F616420315D1B
:10425000475245454E3A2000524544004752454595
:104260004E005B526F616420325D59454C4C4F5794
:104270003A200059454C4C4F57002D2D2D2D2D53D4
:1042800045542054494D45204D4F44452D2D2D2D4D
:104290002D0D0A005B526F616420325D4752454527
:1042A0004E3A20000D0A005B526F616420315D526E
:1042B00045443A2000475245454E2000524544208F
:1042C0002020002D2D2D2D2D4155544F4D41544969
:1042D00043204D4F44452D2D2D2D2D0D0A0020201E
:1042E00020202020202020202020202020200020EE
:1042F00020202020202020202020202020202000DE
:10430000F28ED08EF28C1200F19CF292F2881200A2
:10431000D8CFE4FFE0CFE4FFE46EDACFE4FFE2CFF2
:10432000DAFFE9CFE4FFEACFE4FFF6CFE4FFF7CF0F
:10433000E4FFF5CFE4FFF3CFE4FFF4CFE4FFFACFDF
:10434000E4FF00EE00F0140EE80403E3EECFE4FF18
:10435000FBD700EE14F00A0EE80403E3EECFE4FF0F
:10436000FBD7E652F2A407D00EEC1AF0F29410EC50
:104370001AF0BAEC1BF09EA007D0F9EC1AF09E9050
:10438000B3EC1AF0C8EC1BF09EA207D015EC1BF0A2
:104390009E9211EC1BF0D6EC1BF0A1A207D0B8EC5A
:1043A0001BF0A19272EC1BF0E4EC1BF0F2B2F29263
:1043B0009EAA03D09E9A75EC1EF0E55200EE1DF009
:1043C0000A0EE80403E3E5CFEDFFFBD700EE13F0A0
:1043D000140EE80403E3E5CFEDFFFBD7E5CFFAFFCA
:1043E000E5CFF4FFE5CFF3FFE5CFF5FFE5CFF7FF2E
:1043F000E5CFF6FFE5CFEAFFE5CFE9FFE5CFDAFF4E
:10440000E550E5CFE0FFE5CFD8FF1000DACFE4FFBD
:10441000E2CFDAFFE9CFE4FFEACFE4FFF6CFE4FF33
:10442000F7CFE4FFF5CFE4FFF3CFE4FFF4CFE4FFF1
:10443000FACFE4FF00EE00F0140EE80403E3EECF41
:10444000E4FFFBD700EE14F00A0EE80403E3EECF1E
:10445000E4FFFBD7E652F2A407D00EEC1AF0F29478
:1044600010EC1AF0BAEC1BF09EA007D0F9EC1AF091
:104470009E90B3EC1AF0C8EC1BF09EA207D015EC8E
:104480001BF09E9211EC1BF0D6EC1BF0A1A207D002
:10449000B8EC1BF0A19272EC1BF0E4EC1BF0F2B252
:1044A000F2929EAA03D09E9A75EC1EF0E55200EEA1
:1044B0001DF00A0EE80403E3E5CFEDFFFBD700EEA5
:1044C00013F0140EE80403E3E5CFEDFFFBD7E5CFCF
:1044D000FAFFE5CFF4FFE5CFF3FFE5CFF5FFE5CF3A
:1044E000F7FFE5CFF6FFE5CFEAFFE5CFE9FFE5CF40
:0444F000DAFF1100DE
:0C44F400D9CFE6FFE1CFD9FFE652AE5071
:10450000DF6EDFCFE6FF95EC1CF0E5520101C551EF
:10451000050A2AE0010A21E0070A11E0010A0AE07F
:10452000020A02E0010A2AE1FE0EDF5C28E1C86B04
:10453000020E22D0FE0EDF5C15E1030E1DD0C85125
:10454000EA6A010FE96E0F0EEA22DFCFEFFFC82BF8
:10455000CA51C85D14E3040E0FD0FF0EDF5C02E108
:10456000050E0AD0010E08D0FF0EDF5C04E1010E3B
:10457000C66FC56B04D0010EC56F01D0C56BE55287
:10458000E552E7CFD9FF120012000101C6054AE14A
:10459000EF0EE66E420EE66EE66AE66AAFEC15F0E6
:1045A000E552E552E552E5520F01006B0101CA5197
:1045B0000F01005D21E20051EA6A010FE96E0F0E62
:1045C000EA22EFCF14F0156A166A176A14C0E6FFE4
:1045D00015C0E6FF16C0E6FF17C0E6FF030E000396
:1045E000F350E66EE66A88EC14F0186E060EE15E93
:1045F00018500F01002BDAD7C5C114F0156A166ADE
:10460000176AC5C1E6FF15C0E6FF16C0E6FF17C072
:10461000E6FF0F0EE66EE66A88EC14F0186E060EE2
:06462000E15E18501200DB
:0A462600006A0EAE1CEF23F00D6CCD
:104630000E1EE86A0E22001E09AE24EF23F0086C5D
:10464000091EE86A0922001EBFEC24F009BE34EFFF
:1046500023F000AE000C086C091EE86A0922046C05
:10466000051EE86A0522000C00BE2BEF23F001882E
:10467000FF0C006A0EAE44EF23F00C6C0D1E0E1EF4
:10468000E86A0D220E22001E09AE4EEF23F0076CE1
:10469000081E091EE86A08220922001E86EC24F082
:1046A00009BE61EF23F000AE000C076C081E091E66
:1046B000E86A08220922036C041E051E0422052252
:1046C000000C00BE55EF23F00188FF0C09C013F069
:1046D00008C012F008500D02F4CF07F0F3CF06F037
:1046E00009500E02F4CF09F0F3CF08F00D02F35099
:1046F0000726F4500822E86A092212500E02F350ED
:104700000726F4500822E86A09220EAE8CEF23F047
:104710001250085E1350095A13AE000C0D50085E7B
:064720000E50095A000CC6
:0A4726001E0EF66E000EF76E000E78
:10473000F86E01010900F550DB6F0900F550DC6FE0
:1047400003E1DB6701D03DD00900F550D66F0900C9
:10475000F550D76F0900F550D86F09000900F550E2
:10476000E96E0900F550EA6E090009000900F550EC
:10477000D96F0900F550DA6F09000900F6CFDDF1B5
:10478000F7CFDEF1F8CFDFF1D6C1F6FFD7C1F7FFE3
:10479000D8C1F8FF0101D95302E1DA5307E009005B
:1047A000F550EE6ED907F8E2DA07F9D7DDC1F6FF6A
:1047B000DEC1F7FFDFC1F8FF0101DB07000EDC5BA4
:0447C000BFD712004D
:0C47C400010E926E0E0EC16EC26A040E51
:1047D000C06EC2801200D9CFE6FFE1CFD9FF020E32
:1047E000E126DE6ADD6AC282C2B2FED7C450DE6E46
:1047F000DD6ADECF16F0DDCF17F0D890163617360B
:10480000D89016361736060EC3CFE7FF070B04E025
:10481000E742E79EE806FCE1E7501624146E000E1E
:10482000172014C0DEFFDD6EDECFA9F1DDCFAAF1C7
:10483000DECF14F0DDCF15F014C0F3FF15C0F4FF88
:10484000020EE15C02E2E16AE552E16EE552E7CF79
:04485000D9FF12007A
:0C48540006500B02F3CF02F0F4CF03F08B
:104860000C02F3500326000EF420046E06500D02D5
:10487000F3500426000EF420056E06500E02F3508D
:10488000052607500B02F3500326F4500422000EB5
:10489000052207500C02F3500426F450052207505D
:1048A0000D02F350052608500B02F3500426F45075
:1048B000052208500C02F350052609500B02F35054
:0448C00005261200B7
:0C48C400056A046A036A026A200EE76EAF
:1048D000D8900636073608360936023603360436CF
:1048E00005360B50025C0C5003580D5004580E5006
:1048F000055809E30B50025E0C50035A0D50045A40
:0C4900000E50055A062AE72EE4D71200DC
:04490C00056A046ACA
:10491000036A180EE76ED890073608360936033654
:10492000043605360C50035C0D5004580E500558E3
:1049300007E30C50035E0D50045A0E50055A072A27
:06494000E72EEAD7120089
:0A494600CA94CA90CA829B0ECB6E81
:10495000BD98BD9ABE6ABD9CBD9EBD90BD92BD84F2
:10496000BD869494CA841200D9CFE6FFE1CFD9FF67
:0E497000FE0EDB50BE6EE552E7CFD9FF1200FF
:02497E00056AC8
:10498000046A100EE76ED8900836093604360536EC
:104990000D50045C0E50055805E30D50045E0E509A
:0A49A000055A082AE72EF0D712008E
:0649AA00800EF36E00EE2A
:1049B00000F00F0E01D81200EA6002D0EE6AFCD7B8
:0A49C000F350E9601200EE6AFCD724
:0649CA001EEE00F02EEECF
:1049D00000F0F86A019C93EC23F003EC00F040EC4B
:0649E00000F0FBD71200FD
:0A49E600056A080EE76ED890093646
:1049F00005360E50055C02E3056E092AE72EF7D74F
:024A00001200A2
:0E4A02000000000000000000000000000000A6
:104A10000000000000000000000001000100010093
:024A2000010093
:0E4A220000000000000000050500000000007C
:054A3000000000000081
:0B4A3500010204081020408000000077
:104A400000000000000102034104050642070809B6
:104A5000432A004544010203040207080903030333
:104A6000030408060805414243FF0000FF00000060
:104A70000000000B000B0007000700040004000307
:104A8000000001020304050607080900000D0001EB
:104A90000204050608090A000000000000000000EA
:0C4AA0000000000000000000000000000A
:044AAC000000000006
:104AB0000000000010101010101010101818181816
:104AC000181818181C1C1C1C1C1C1C1C1E1E1E1E2E
:104AD0001E1E1E1E1F1F1F1F1F1F1F1F0000000066
:104AE00000000000000000000000000000000000C6
:104AF00000000000000000000000000000000000B6
:0D4B000000000000000000000000000000A8
:034B0D00000000A5
:104B1000D000222222072509100001000000000019
:084B200000000000000000008D
:084B2800000000000000000085
:104B30000000000000000000000000000000000075
:104B40000000000000000000102040800102040866
:020000040030CA
:0100010002FC
:0100020003FA
:010003001EDE
:010005008179
:010006008178
:010008000FE8
:01000900C036
:01000A000FE6
:01000B00E014
:01000C000FE4
:01000D0040B2
:00000001FF
